{
  "_format": "hh-sol-artifact-1",
  "contractName": "Voting",
  "sourceName": "contracts/VotingManager.sol",
  "abi": [
    {
      "inputs": [
        {
          "internalType": "address",
          "name": "creator",
          "type": "address"
        }
      ],
      "stateMutability": "nonpayable",
      "type": "constructor"
    },
    {
      "inputs": [
        {
          "internalType": "string",
          "name": "_name",
          "type": "string"
        }
      ],
      "name": "addCandidate",
      "outputs": [],
      "stateMutability": "nonpayable",
      "type": "function"
    },
    {
      "inputs": [
        {
          "internalType": "address",
          "name": "_voterAddress",
          "type": "address"
        }
      ],
      "name": "checkVoter",
      "outputs": [
        {
          "internalType": "bool",
          "name": "",
          "type": "bool"
        },
        {
          "internalType": "int256",
          "name": "",
          "type": "int256"
        }
      ],
      "stateMutability": "view",
      "type": "function"
    },
    {
      "inputs": [],
      "name": "endVoting",
      "outputs": [],
      "stateMutability": "nonpayable",
      "type": "function"
    },
    {
      "inputs": [],
      "name": "getCandidateList",
      "outputs": [
        {
          "internalType": "uint256[]",
          "name": "",
          "type": "uint256[]"
        },
        {
          "internalType": "string[]",
          "name": "",
          "type": "string[]"
        },
        {
          "internalType": "uint256[]",
          "name": "",
          "type": "uint256[]"
        }
      ],
      "stateMutability": "view",
      "type": "function"
    },
    {
      "inputs": [
        {
          "internalType": "uint256",
          "name": "_candidateId",
          "type": "uint256"
        }
      ],
      "name": "getOneCandidate",
      "outputs": [
        {
          "internalType": "string",
          "name": "",
          "type": "string"
        },
        {
          "internalType": "uint256",
          "name": "",
          "type": "uint256"
        }
      ],
      "stateMutability": "view",
      "type": "function"
    },
    {
      "inputs": [],
      "name": "getOwner",
      "outputs": [
        {
          "internalType": "address",
          "name": "",
          "type": "address"
        }
      ],
      "stateMutability": "view",
      "type": "function"
    },
    {
      "inputs": [
        {
          "internalType": "uint256",
          "name": "_candidateId",
          "type": "uint256"
        }
      ],
      "name": "getVotersForCandidate",
      "outputs": [
        {
          "internalType": "address[]",
          "name": "",
          "type": "address[]"
        }
      ],
      "stateMutability": "view",
      "type": "function"
    },
    {
      "inputs": [],
      "name": "getWinningCandidate",
      "outputs": [
        {
          "internalType": "string",
          "name": "",
          "type": "string"
        }
      ],
      "stateMutability": "view",
      "type": "function"
    },
    {
      "inputs": [
        {
          "internalType": "uint256",
          "name": "_candidateId",
          "type": "uint256"
        }
      ],
      "name": "vote",
      "outputs": [],
      "stateMutability": "nonpayable",
      "type": "function"
    },
    {
      "inputs": [],
      "name": "votingActive",
      "outputs": [
        {
          "internalType": "bool",
          "name": "",
          "type": "bool"
        }
      ],
      "stateMutability": "view",
      "type": "function"
    }
  ],
  "bytecode": "0x60a06040523480156200001157600080fd5b5060405162001ef238038062001ef28339818101604052810190620000379190620000f6565b8073ffffffffffffffffffffffffffffffffffffffff1660808173ffffffffffffffffffffffffffffffffffffffff168152505060016000806101000a81548160ff0219169083151502179055505062000128565b600080fd5b600073ffffffffffffffffffffffffffffffffffffffff82169050919050565b6000620000be8262000091565b9050919050565b620000d081620000b1565b8114620000dc57600080fd5b50565b600081519050620000f081620000c5565b92915050565b6000602082840312156200010f576200010e6200008c565b5b60006200011f84828501620000df565b91505092915050565b608051611da0620001526000396000818161044d015281816106d30152610a3d0152611da06000f3fe608060405234801561001057600080fd5b506004361061009e5760003560e01c80639b8ebc54116100665780639b8ebc5414610148578063b34a1eeb14610179578063c3403ddf146101a9578063f927cc29146101b3578063fdbc4006146101d15761009e565b80630121b93f146100a3578063408e2727146100bf578063462e91ec146100dd578063893d20e8146100f95780638f42f79b14610117575b600080fd5b6100bd60048036038101906100b89190610fb2565b6101f1565b005b6100c761043a565b6040516100d49190610ffa565b60405180910390f35b6100f760048036038101906100f2919061115b565b61044b565b005b6101016106cf565b60405161010e91906111e5565b60405180910390f35b610131600480360381019061012c9190610fb2565b6106f7565b60405161013f92919061128e565b60405180910390f35b610162600480360381019061015d91906112ea565b610869565b604051610170929190611330565b60405180910390f35b610193600480360381019061018e9190610fb2565b61093b565b6040516101a09190611417565b60405180910390f35b6101b1610a3b565b005b6101bb610ae5565b6040516101c89190611439565b60405180910390f35b6101d9610c61565b6040516101e893929190611625565b60405180910390f35b6001151560008054906101000a900460ff16151514610245576040517f08c379a000000000000000000000000000000000000000000000000000000000815260040161023c906116bd565b60405180910390fd5b600160003373ffffffffffffffffffffffffffffffffffffffff1673ffffffffffffffffffffffffffffffffffffffff16815260200190815260200160002060000160009054906101000a900460ff16156102d5576040517f08c379a00000000000000000000000000000000000000000000000000000000081526004016102cc90611729565b60405180910390fd5b600280549050811061031c576040517f08c379a000000000000000000000000000000000000000000000000000000000815260040161031390611795565b60405180910390fd5b600281815481106103305761032f6117b5565b5b9060005260206000209060030201600101600081548092919061035290611813565b91905055506002818154811061036b5761036a6117b5565b5b9060005260206000209060030201600201339080600181540180825580915050600190039060005260206000200160009091909190916101000a81548173ffffffffffffffffffffffffffffffffffffffff021916908373ffffffffffffffffffffffffffffffffffffffff16021790555060018060003373ffffffffffffffffffffffffffffffffffffffff1673ffffffffffffffffffffffffffffffffffffffff16815260200190815260200160002060000160006101000a81548160ff02191690831515021790555050565b60008054906101000a900460ff1681565b7f000000000000000000000000000000000000000000000000000000000000000073ffffffffffffffffffffffffffffffffffffffff163373ffffffffffffffffffffffffffffffffffffffff16146104d9576040517f08c379a00000000000000000000000000000000000000000000000000000000081526004016104d0906118a7565b60405180910390fd5b6001151560008054906101000a900460ff1615151461052d576040517f08c379a0000000000000000000000000000000000000000000000000000000008152600401610524906116bd565b60405180910390fd5b60005b6002805490508110156105fc578160405160200161054e9190611903565b6040516020818303038152906040528051906020012060028281548110610578576105776117b5565b5b90600052602060002090600302016000016040516020016105999190611a12565b60405160208183030381529060405280519060200120036105ef576040517f08c379a00000000000000000000000000000000000000000000000000000000081526004016105e690611a75565b60405180910390fd5b8080600101915050610530565b506002604051806060016040528083815260200160008152602001600067ffffffffffffffff81111561063257610631611030565b5b6040519080825280602002602001820160405280156106605781602001602082028036833780820191505090505b50815250908060018154018082558091505060019003906000526020600020906003020160009091909190915060008201518160000190816106a29190611c2c565b506020820151816001015560408201518160020190805190602001906106c9929190610ec1565b50505050565b60007f0000000000000000000000000000000000000000000000000000000000000000905090565b6060600080600284815481106107105761070f6117b5565b5b906000526020600020906003020160405180606001604052908160008201805461073990611949565b80601f016020809104026020016040519081016040528092919081815260200182805461076590611949565b80156107b25780601f10610787576101008083540402835291602001916107b2565b820191906000526020600020905b81548152906001019060200180831161079557829003601f168201915b50505050508152602001600182015481526020016002820180548060200260200160405190810160405280929190818152602001828054801561084a57602002820191906000526020600020905b8160009054906101000a900473ffffffffffffffffffffffffffffffffffffffff1673ffffffffffffffffffffffffffffffffffffffff1681526020019060010190808311610800575b5050505050815250509050806000015181602001519250925050915091565b600080600160008473ffffffffffffffffffffffffffffffffffffffff1673ffffffffffffffffffffffffffffffffffffffff16815260200190815260200160002060000160009054906101000a900460ff161561090e5760018060008573ffffffffffffffffffffffffffffffffffffffff1673ffffffffffffffffffffffffffffffffffffffff1681526020019081526020016000206001015491509150610936565b60007fffffffffffffffffffffffffffffffffffffffffffffffffffffffffffffffff915091505b915091565b60606002805490508210610984576040517f08c379a000000000000000000000000000000000000000000000000000000000815260040161097b90611795565b60405180910390fd5b60006002838154811061099a576109996117b5565b5b9060005260206000209060030201905080600201805480602002602001604051908101604052809291908181526020018280548015610a2e57602002820191906000526020600020905b8160009054906101000a900473ffffffffffffffffffffffffffffffffffffffff1673ffffffffffffffffffffffffffffffffffffffff16815260200190600101908083116109e4575b5050505050915050919050565b7f000000000000000000000000000000000000000000000000000000000000000073ffffffffffffffffffffffffffffffffffffffff163373ffffffffffffffffffffffffffffffffffffffff1614610ac9576040517f08c379a0000000000000000000000000000000000000000000000000000000008152600401610ac0906118a7565b60405180910390fd5b60008060006101000a81548160ff021916908315150217905550565b6060600060028054905011610b2f576040517f08c379a0000000000000000000000000000000000000000000000000000000008152600401610b2690611d4a565b60405180910390fd5b60008080600090505b600280549050811015610bab578260028281548110610b5a57610b596117b5565b5b9060005260206000209060030201600101541115610b9e5760028181548110610b8657610b856117b5565b5b90600052602060002090600302016001015492508091505b8080600101915050610b38565b5060028181548110610bc057610bbf6117b5565b5b90600052602060002090600302016000018054610bdc90611949565b80601f0160208091040260200160405190810160405280929190818152602001828054610c0890611949565b8015610c555780601f10610c2a57610100808354040283529160200191610c55565b820191906000526020600020905b815481529060010190602001808311610c3857829003601f168201915b50505050509250505090565b6060806060600060028054905067ffffffffffffffff811115610c8757610c86611030565b5b604051908082528060200260200182016040528015610cb55781602001602082028036833780820191505090505b509050600060028054905067ffffffffffffffff811115610cd957610cd8611030565b5b604051908082528060200260200182016040528015610d0c57816020015b6060815260200190600190039081610cf75790505b509050600060028054905067ffffffffffffffff811115610d3057610d2f611030565b5b604051908082528060200260200182016040528015610d5e5781602001602082028036833780820191505090505b50905060005b600280549050811015610eaf5780848281518110610d8557610d846117b5565b5b60200260200101818152505060028181548110610da557610da46117b5565b5b90600052602060002090600302016000018054610dc190611949565b80601f0160208091040260200160405190810160405280929190818152602001828054610ded90611949565b8015610e3a5780601f10610e0f57610100808354040283529160200191610e3a565b820191906000526020600020905b815481529060010190602001808311610e1d57829003601f168201915b5050505050838281518110610e5257610e516117b5565b5b602002602001018190525060028181548110610e7157610e706117b5565b5b906000526020600020906003020160010154828281518110610e9657610e956117b5565b5b6020026020010181815250508080600101915050610d64565b50828282955095509550505050909192565b828054828255906000526020600020908101928215610f3a579160200282015b82811115610f395782518260006101000a81548173ffffffffffffffffffffffffffffffffffffffff021916908373ffffffffffffffffffffffffffffffffffffffff16021790555091602001919060010190610ee1565b5b509050610f479190610f4b565b5090565b5b80821115610f64576000816000905550600101610f4c565b5090565b6000604051905090565b600080fd5b600080fd5b6000819050919050565b610f8f81610f7c565b8114610f9a57600080fd5b50565b600081359050610fac81610f86565b92915050565b600060208284031215610fc857610fc7610f72565b5b6000610fd684828501610f9d565b91505092915050565b60008115159050919050565b610ff481610fdf565b82525050565b600060208201905061100f6000830184610feb565b92915050565b600080fd5b600080fd5b6000601f19601f8301169050919050565b7f4e487b7100000000000000000000000000000000000000000000000000000000600052604160045260246000fd5b6110688261101f565b810181811067ffffffffffffffff8211171561108757611086611030565b5b80604052505050565b600061109a610f68565b90506110a6828261105f565b919050565b600067ffffffffffffffff8211156110c6576110c5611030565b5b6110cf8261101f565b9050602081019050919050565b82818337600083830152505050565b60006110fe6110f9846110ab565b611090565b90508281526020810184848401111561111a5761111961101a565b5b6111258482856110dc565b509392505050565b600082601f83011261114257611141611015565b5b81356111528482602086016110eb565b91505092915050565b60006020828403121561117157611170610f72565b5b600082013567ffffffffffffffff81111561118f5761118e610f77565b5b61119b8482850161112d565b91505092915050565b600073ffffffffffffffffffffffffffffffffffffffff82169050919050565b60006111cf826111a4565b9050919050565b6111df816111c4565b82525050565b60006020820190506111fa60008301846111d6565b92915050565b600081519050919050565b600082825260208201905092915050565b60005b8381101561123a57808201518184015260208101905061121f565b60008484015250505050565b600061125182611200565b61125b818561120b565b935061126b81856020860161121c565b6112748161101f565b840191505092915050565b61128881610f7c565b82525050565b600060408201905081810360008301526112a88185611246565b90506112b7602083018461127f565b9392505050565b6112c7816111c4565b81146112d257600080fd5b50565b6000813590506112e4816112be565b92915050565b600060208284031215611300576112ff610f72565b5b600061130e848285016112d5565b91505092915050565b6000819050919050565b61132a81611317565b82525050565b60006040820190506113456000830185610feb565b6113526020830184611321565b9392505050565b600081519050919050565b600082825260208201905092915050565b6000819050602082019050919050565b61138e816111c4565b82525050565b60006113a08383611385565b60208301905092915050565b6000602082019050919050565b60006113c482611359565b6113ce8185611364565b93506113d983611375565b8060005b8381101561140a5781516113f18882611394565b97506113fc836113ac565b9250506001810190506113dd565b5085935050505092915050565b6000602082019050818103600083015261143181846113b9565b905092915050565b600060208201905081810360008301526114538184611246565b905092915050565b600081519050919050565b600082825260208201905092915050565b6000819050602082019050919050565b61149081610f7c565b82525050565b60006114a28383611487565b60208301905092915050565b6000602082019050919050565b60006114c68261145b565b6114d08185611466565b93506114db83611477565b8060005b8381101561150c5781516114f38882611496565b97506114fe836114ae565b9250506001810190506114df565b5085935050505092915050565b600081519050919050565b600082825260208201905092915050565b6000819050602082019050919050565b600082825260208201905092915050565b600061156182611200565b61156b8185611545565b935061157b81856020860161121c565b6115848161101f565b840191505092915050565b600061159b8383611556565b905092915050565b6000602082019050919050565b60006115bb82611519565b6115c58185611524565b9350836020820285016115d785611535565b8060005b8581101561161357848403895281516115f4858261158f565b94506115ff836115a3565b925060208a019950506001810190506115db565b50829750879550505050505092915050565b6000606082019050818103600083015261163f81866114bb565b9050818103602083015261165381856115b0565b9050818103604083015261166781846114bb565b9050949350505050565b7f566f74696e672068617320656e64656421000000000000000000000000000000600082015250565b60006116a760118361120b565b91506116b282611671565b602082019050919050565b600060208201905081810360008301526116d68161169a565b9050919050565b7f596f75206861766520616c726561647920766f74656400000000000000000000600082015250565b600061171360168361120b565b915061171e826116dd565b602082019050919050565b6000602082019050818103600083015261174281611706565b9050919050565b7f496e76616c69642063616e646964617465204944000000000000000000000000600082015250565b600061177f60148361120b565b915061178a82611749565b602082019050919050565b600060208201905081810360008301526117ae81611772565b9050919050565b7f4e487b7100000000000000000000000000000000000000000000000000000000600052603260045260246000fd5b7f4e487b7100000000000000000000000000000000000000000000000000000000600052601160045260246000fd5b600061181e82610f7c565b91507fffffffffffffffffffffffffffffffffffffffffffffffffffffffffffffffff82036118505761184f6117e4565b5b600182019050919050565b7f53656e646572206973206e6f74206f776e657221000000000000000000000000600082015250565b600061189160148361120b565b915061189c8261185b565b602082019050919050565b600060208201905081810360008301526118c081611884565b9050919050565b600081905092915050565b60006118dd82611200565b6118e781856118c7565b93506118f781856020860161121c565b80840191505092915050565b600061190f82846118d2565b915081905092915050565b7f4e487b7100000000000000000000000000000000000000000000000000000000600052602260045260246000fd5b6000600282049050600182168061196157607f821691505b6020821081036119745761197361191a565b5b50919050565b60008190508160005260206000209050919050565b6000815461199c81611949565b6119a681866118c7565b945060018216600081146119c157600181146119d657611a09565b60ff1983168652811515820286019350611a09565b6119df8561197a565b60005b83811015611a01578154818901526001820191506020810190506119e2565b838801955050505b50505092915050565b6000611a1e828461198f565b915081905092915050565b7f43616e64696461746520616c7265616479206578697374730000000000000000600082015250565b6000611a5f60188361120b565b9150611a6a82611a29565b602082019050919050565b60006020820190508181036000830152611a8e81611a52565b9050919050565b60006020601f8301049050919050565b600082821b905092915050565b600060088302611ae27fffffffffffffffffffffffffffffffffffffffffffffffffffffffffffffffff82611aa5565b611aec8683611aa5565b95508019841693508086168417925050509392505050565b6000819050919050565b6000611b29611b24611b1f84610f7c565b611b04565b610f7c565b9050919050565b6000819050919050565b611b4383611b0e565b611b57611b4f82611b30565b848454611ab2565b825550505050565b600090565b611b6c611b5f565b611b77818484611b3a565b505050565b5b81811015611b9b57611b90600082611b64565b600181019050611b7d565b5050565b601f821115611be057611bb18161197a565b611bba84611a95565b81016020851015611bc9578190505b611bdd611bd585611a95565b830182611b7c565b50505b505050565b600082821c905092915050565b6000611c0360001984600802611be5565b1980831691505092915050565b6000611c1c8383611bf2565b9150826002028217905092915050565b611c3582611200565b67ffffffffffffffff811115611c4e57611c4d611030565b5b611c588254611949565b611c63828285611b9f565b600060209050601f831160018114611c965760008415611c84578287015190505b611c8e8582611c10565b865550611cf6565b601f198416611ca48661197a565b60005b82811015611ccc57848901518255600182019150602085019450602081019050611ca7565b86831015611ce95784890151611ce5601f891682611bf2565b8355505b6001600288020188555050505b505050505050565b7f4e6f2063616e6469646174657320726567697374657265640000000000000000600082015250565b6000611d3460188361120b565b9150611d3f82611cfe565b602082019050919050565b60006020820190508181036000830152611d6381611d27565b905091905056fea2646970667358221220e0f76f5edb1414a7afd5d895f4f7fd75b8dd4de312cd538207f894a0fe99aa9564736f6c63430008180033",
  "linkReferences": {},
  "deployedLinkReferences": {}
}