{
  "_format": "hh-sol-artifact-1",
  "contractName": "VotingManager",
  "sourceName": "contracts/VotingManager.sol",
  "abi": [
    {
      "inputs": [
        {
          "internalType": "string",
          "name": "_name",
          "type": "string"
        }
      ],
      "name": "createVoting",
      "outputs": [],
      "stateMutability": "nonpayable",
      "type": "function"
    },
    {
      "inputs": [],
      "name": "getLatestVoting",
      "outputs": [
        {
          "internalType": "address",
          "name": "",
          "type": "address"
        }
      ],
      "stateMutability": "view",
      "type": "function"
    },
    {
      "inputs": [
        {
          "internalType": "string",
          "name": "",
          "type": "string"
        }
      ],
      "name": "usedNames",
      "outputs": [
        {
          "internalType": "bool",
          "name": "",
          "type": "bool"
        }
      ],
      "stateMutability": "view",
      "type": "function"
    },
    {
      "inputs": [
        {
          "internalType": "address",
          "name": "",
          "type": "address"
        }
      ],
      "name": "votingInstances",
      "outputs": [
        {
          "internalType": "address",
          "name": "instanceAddress",
          "type": "address"
        },
        {
          "internalType": "string",
          "name": "name",
          "type": "string"
        }
      ],
      "stateMutability": "view",
      "type": "function"
    }
  ],
  "bytecode": "0x608060405234801561001057600080fd5b50612c36806100206000396000f3fe608060405234801561001057600080fd5b506004361061004c5760003560e01c80631878e81714610051578063677c3f9c14610082578063a33cd4901461009e578063b85b99c9146100bc575b600080fd5b61006b60048036038101906100669190610529565b6100ec565b6040516100799291906105fe565b60405180910390f35b61009c60048036038101906100979190610763565b6101b8565b005b6100a66103a8565b6040516100b391906107ac565b60405180910390f35b6100d660048036038101906100d19190610763565b6103d1565b6040516100e391906107e2565b60405180910390f35b60016020528060005260406000206000915090508060000160009054906101000a900473ffffffffffffffffffffffffffffffffffffffff16908060010180546101359061082c565b80601f01602080910402602001604051908101604052809291908181526020018280546101619061082c565b80156101ae5780601f10610183576101008083540402835291602001916101ae565b820191906000526020600020905b81548152906001019060200180831161019157829003601f168201915b5050505050905082565b6002816040516101c8919061089a565b908152602001604051809103902060009054906101000a900460ff1615610224576040517f08c379a000000000000000000000000000000000000000000000000000000000815260040161021b906108fd565b60405180910390fd5b60003360405161023390610407565b61023d91906107ac565b604051809103906000f080158015610259573d6000803e3d6000fd5b50905060405180604001604052808273ffffffffffffffffffffffffffffffffffffffff16815260200183815250600160008373ffffffffffffffffffffffffffffffffffffffff1673ffffffffffffffffffffffffffffffffffffffff16815260200190815260200160002060008201518160000160006101000a81548173ffffffffffffffffffffffffffffffffffffffff021916908373ffffffffffffffffffffffffffffffffffffffff1602179055506020820151816001019080519060200190610329929190610414565b50905050806000806101000a81548173ffffffffffffffffffffffffffffffffffffffff021916908373ffffffffffffffffffffffffffffffffffffffff160217905550600160028360405161037f919061089a565b908152602001604051809103902060006101000a81548160ff0219169083151502179055505050565b60008060009054906101000a900473ffffffffffffffffffffffffffffffffffffffff16905090565b6002818051602081018201805184825260208301602085012081835280955050505050506000915054906101000a900460ff1681565b6122e38061091e83390190565b8280546104209061082c565b90600052602060002090601f0160209004810192826104425760008555610489565b82601f1061045b57805160ff1916838001178555610489565b82800160010185558215610489579182015b8281111561048857825182559160200191906001019061046d565b5b509050610496919061049a565b5090565b5b808211156104b357600081600090555060010161049b565b5090565b6000604051905090565b600080fd5b600080fd5b600073ffffffffffffffffffffffffffffffffffffffff82169050919050565b60006104f6826104cb565b9050919050565b610506816104eb565b811461051157600080fd5b50565b600081359050610523816104fd565b92915050565b60006020828403121561053f5761053e6104c1565b5b600061054d84828501610514565b91505092915050565b61055f816104eb565b82525050565b600081519050919050565b600082825260208201905092915050565b60005b8381101561059f578082015181840152602081019050610584565b838111156105ae576000848401525b50505050565b6000601f19601f8301169050919050565b60006105d082610565565b6105da8185610570565b93506105ea818560208601610581565b6105f3816105b4565b840191505092915050565b60006040820190506106136000830185610556565b818103602083015261062581846105c5565b90509392505050565b600080fd5b600080fd5b7f4e487b7100000000000000000000000000000000000000000000000000000000600052604160045260246000fd5b610670826105b4565b810181811067ffffffffffffffff8211171561068f5761068e610638565b5b80604052505050565b60006106a26104b7565b90506106ae8282610667565b919050565b600067ffffffffffffffff8211156106ce576106cd610638565b5b6106d7826105b4565b9050602081019050919050565b82818337600083830152505050565b6000610706610701846106b3565b610698565b90508281526020810184848401111561072257610721610633565b5b61072d8482856106e4565b509392505050565b600082601f83011261074a5761074961062e565b5b813561075a8482602086016106f3565b91505092915050565b600060208284031215610779576107786104c1565b5b600082013567ffffffffffffffff811115610797576107966104c6565b5b6107a384828501610735565b91505092915050565b60006020820190506107c16000830184610556565b92915050565b60008115159050919050565b6107dc816107c7565b82525050565b60006020820190506107f760008301846107d3565b92915050565b7f4e487b7100000000000000000000000000000000000000000000000000000000600052602260045260246000fd5b6000600282049050600182168061084457607f821691505b60208210811415610858576108576107fd565b5b50919050565b600081905092915050565b600061087482610565565b61087e818561085e565b935061088e818560208601610581565b80840191505092915050565b60006108a68284610869565b915081905092915050565b7f4e616d6520616c726561647920696e2075736500000000000000000000000000600082015250565b60006108e7601383610570565b91506108f2826108b1565b602082019050919050565b60006020820190508181036000830152610916816108da565b905091905056fe60a06040523480156200001157600080fd5b50604051620022e3380380620022e38339818101604052810190620000379190620000f9565b8073ffffffffffffffffffffffffffffffffffffffff1660808173ffffffffffffffffffffffffffffffffffffffff1660601b8152505060016000806101000a81548160ff021916908315150217905550506200012b565b600080fd5b600073ffffffffffffffffffffffffffffffffffffffff82169050919050565b6000620000c18262000094565b9050919050565b620000d381620000b4565b8114620000df57600080fd5b50565b600081519050620000f381620000c8565b92915050565b6000602082840312156200011257620001116200008f565b5b60006200012284828501620000e2565b91505092915050565b60805160601c61218b620001586000396000818161027b015281816108340152610cdd015261218b6000f3fe608060405234801561001057600080fd5b50600436106100cf5760003560e01c806396801d431161008c578063c3403ddf11610066578063c3403ddf14610215578063efd5297c1461021f578063f7e5b82b1461023d578063f927cc291461025b576100cf565b806396801d43146101845780639b8ebc54146101b4578063b34a1eeb146101e5576100cf565b80630b32ff77146100d4578063408e2727146100f0578063581c281c1461010e5780638415d9491461012c57806386a505351461014a578063893d20e814610166575b600080fd5b6100ee60048036038101906100e9919061182a565b610279565b005b6100f861053c565b60405161010591906118d0565b60405180910390f35b61011661054d565b60405161012391906118d0565b60405180910390f35b610134610563565b60405161014191906119a9565b60405180910390f35b610164600480360381019061015f9190611a01565b6105f1565b005b61016e610830565b60405161017b9190611a3d565b60405180910390f35b61019e60048036038101906101999190611a01565b610858565b6040516101ab9190611b59565b60405180910390f35b6101ce60048036038101906101c99190611b7b565b610a18565b6040516101dc929190611bc1565b60405180910390f35b6101ff60048036038101906101fa9190611a01565b610aeb565b60405161020c91906119a9565b60405180910390f35b61021d610cdb565b005b610227610d85565b6040516102349190611d16565b60405180910390f35b610245610f68565b6040516102529190611d16565b60405180910390f35b610263611306565b6040516102709190611b59565b60405180910390f35b7f000000000000000000000000000000000000000000000000000000000000000073ffffffffffffffffffffffffffffffffffffffff163373ffffffffffffffffffffffffffffffffffffffff1614610307576040517f08c379a00000000000000000000000000000000000000000000000000000000081526004016102fe90611d95565b60405180910390fd5b6001151560008054906101000a900460ff1615151461035b576040517f08c379a000000000000000000000000000000000000000000000000000000000815260040161035290611e01565b60405180910390fd5b60005b600580549050811015610432578173ffffffffffffffffffffffffffffffffffffffff166005828154811061039657610395611e21565b5b906000526020600020906004020160010160009054906101000a900473ffffffffffffffffffffffffffffffffffffffff1673ffffffffffffffffffffffffffffffffffffffff16141561041f576040517f08c379a000000000000000000000000000000000000000000000000000000000815260040161041690611ec2565b60405180910390fd5b808061042a90611f11565b91505061035e565b50600180546104419190611f5a565b600181905550600560405180608001604052808581526020018373ffffffffffffffffffffffffffffffffffffffff1681526020018481526020016000815250908060018154018082558091505060019003906000526020600020906004020160009091909190915060008201518160000190805190602001906104c6929190611591565b5060208201518160010160006101000a81548173ffffffffffffffffffffffffffffffffffffffff021916908373ffffffffffffffffffffffffffffffffffffffff160217905550604082015181600201908051906020019061052a929190611591565b50606082015181600301555050505050565b60008054906101000a900460ff1681565b60008060009054906101000a900460ff16905090565b606060048054806020026020016040519081016040528092919081815260200182805480156105e757602002820191906000526020600020905b8160009054906101000a900473ffffffffffffffffffffffffffffffffffffffff1673ffffffffffffffffffffffffffffffffffffffff168152602001906001019080831161059d575b5050505050905090565b6001151560008054906101000a900460ff16151514610645576040517f08c379a000000000000000000000000000000000000000000000000000000000815260040161063c90611e01565b60405180910390fd5b600360003373ffffffffffffffffffffffffffffffffffffffff1673ffffffffffffffffffffffffffffffffffffffff16815260200190815260200160002060000160009054906101000a900460ff16156106d5576040517f08c379a00000000000000000000000000000000000000000000000000000000081526004016106cc90611ffc565b60405180910390fd5b600580549050811061071c576040517f08c379a000000000000000000000000000000000000000000000000000000000815260040161071390612068565b60405180910390fd5b600581815481106107305761072f611e21565b5b9060005260206000209060040201600301600081548092919061075290611f11565b91905055506004339080600181540180825580915050600190039060005260206000200160009091909190916101000a81548173ffffffffffffffffffffffffffffffffffffffff021916908373ffffffffffffffffffffffffffffffffffffffff1602179055506001600360003373ffffffffffffffffffffffffffffffffffffffff1673ffffffffffffffffffffffffffffffffffffffff16815260200190815260200160002060000160006101000a81548160ff0219169083151502179055506002600081548092919061082890611f11565b919050555050565b60007f0000000000000000000000000000000000000000000000000000000000000000905090565b610860611617565b6005828154811061087457610873611e21565b5b906000526020600020906004020160405180608001604052908160008201805461089d906120b7565b80601f01602080910402602001604051908101604052809291908181526020018280546108c9906120b7565b80156109165780601f106108eb57610100808354040283529160200191610916565b820191906000526020600020905b8154815290600101906020018083116108f957829003601f168201915b505050505081526020016001820160009054906101000a900473ffffffffffffffffffffffffffffffffffffffff1673ffffffffffffffffffffffffffffffffffffffff1673ffffffffffffffffffffffffffffffffffffffff168152602001600282018054610985906120b7565b80601f01602080910402602001604051908101604052809291908181526020018280546109b1906120b7565b80156109fe5780601f106109d3576101008083540402835291602001916109fe565b820191906000526020600020905b8154815290600101906020018083116109e157829003601f168201915b505050505081526020016003820154815250509050919050565b600080600360008473ffffffffffffffffffffffffffffffffffffffff1673ffffffffffffffffffffffffffffffffffffffff16815260200190815260200160002060000160009054906101000a900460ff1615610abe576001600360008573ffffffffffffffffffffffffffffffffffffffff1673ffffffffffffffffffffffffffffffffffffffff1681526020019081526020016000206001015491509150610ae6565b60007fffffffffffffffffffffffffffffffffffffffffffffffffffffffffffffffff915091505b915091565b60606005805490508210610b34576040517f08c379a0000000000000000000000000000000000000000000000000000000008152600401610b2b90612068565b60405180910390fd5b600060048054905067ffffffffffffffff811115610b5557610b546116a1565b5b604051908082528060200260200182016040528015610b835781602001602082028036833780820191505090505b5090506000805b600480549050811015610ccd57846003600060048481548110610bb057610baf611e21565b5b9060005260206000200160009054906101000a900473ffffffffffffffffffffffffffffffffffffffff1673ffffffffffffffffffffffffffffffffffffffff1673ffffffffffffffffffffffffffffffffffffffff168152602001908152602001600020600101541415610cba5760048181548110610c3357610c32611e21565b5b9060005260206000200160009054906101000a900473ffffffffffffffffffffffffffffffffffffffff16838381518110610c7157610c70611e21565b5b602002602001019073ffffffffffffffffffffffffffffffffffffffff16908173ffffffffffffffffffffffffffffffffffffffff16815250508180610cb690611f11565b9250505b8080610cc590611f11565b915050610b8a565b508082528192505050919050565b7f000000000000000000000000000000000000000000000000000000000000000073ffffffffffffffffffffffffffffffffffffffff163373ffffffffffffffffffffffffffffffffffffffff1614610d69576040517f08c379a0000000000000000000000000000000000000000000000000000000008152600401610d6090611d95565b60405180910390fd5b60008060006101000a81548160ff021916908315150217905550565b60606005805480602002602001604051908101604052809291908181526020016000905b82821015610f5f5783829060005260206000209060040201604051806080016040529081600082018054610ddc906120b7565b80601f0160208091040260200160405190810160405280929190818152602001828054610e08906120b7565b8015610e555780601f10610e2a57610100808354040283529160200191610e55565b820191906000526020600020905b815481529060010190602001808311610e3857829003601f168201915b505050505081526020016001820160009054906101000a900473ffffffffffffffffffffffffffffffffffffffff1673ffffffffffffffffffffffffffffffffffffffff1673ffffffffffffffffffffffffffffffffffffffff168152602001600282018054610ec4906120b7565b80601f0160208091040260200160405190810160405280929190818152602001828054610ef0906120b7565b8015610f3d5780601f10610f1257610100808354040283529160200191610f3d565b820191906000526020600020905b815481529060010190602001808311610f2057829003601f168201915b5050505050815260200160038201548152505081526020019060010190610da9565b50505050905090565b6060600060058054905011610fb2576040517f08c379a0000000000000000000000000000000000000000000000000000000008152600401610fa990612135565b60405180910390fd5b60008060005b600580549050811015611073578260058281548110610fda57610fd9611e21565b5b9060005260206000209060040201600301541115611023576005818154811061100657611005611e21565b5b906000526020600020906004020160030154925060019150611060565b826005828154811061103857611037611e21565b5b906000526020600020906004020160030154141561105f57818061105b90611f11565b9250505b5b808061106b90611f11565b915050610fb8565b5060008167ffffffffffffffff8111156110905761108f6116a1565b5b6040519080825280602002602001820160405280156110c957816020015b6110b6611617565b8152602001906001900390816110ae5790505b5090506000805b6005805490508110156112fb5784600582815481106110f2576110f1611e21565b5b90600052602060002090600402016003015414156112e8576005818154811061111e5761111d611e21565b5b9060005260206000209060040201604051806080016040529081600082018054611147906120b7565b80601f0160208091040260200160405190810160405280929190818152602001828054611173906120b7565b80156111c05780601f10611195576101008083540402835291602001916111c0565b820191906000526020600020905b8154815290600101906020018083116111a357829003601f168201915b505050505081526020016001820160009054906101000a900473ffffffffffffffffffffffffffffffffffffffff1673ffffffffffffffffffffffffffffffffffffffff1673ffffffffffffffffffffffffffffffffffffffff16815260200160028201805461122f906120b7565b80601f016020809104026020016040519081016040528092919081815260200182805461125b906120b7565b80156112a85780601f1061127d576101008083540402835291602001916112a8565b820191906000526020600020905b81548152906001019060200180831161128b57829003601f168201915b505050505081526020016003820154815250508383815181106112ce576112cd611e21565b5b602002602001018190525081806112e490611f11565b9250505b80806112f390611f11565b9150506110d0565b508194505050505090565b61130e611617565b600060058054905011611356576040517f08c379a000000000000000000000000000000000000000000000000000000000815260040161134d90612135565b60405180910390fd5b60008080600090505b6005805490508110156113d857826005828154811061138157611380611e21565b5b90600052602060002090600402016003015411156113c557600581815481106113ad576113ac611e21565b5b90600052602060002090600402016003015492508091505b80806113d090611f11565b91505061135f565b50600581815481106113ed576113ec611e21565b5b9060005260206000209060040201604051806080016040529081600082018054611416906120b7565b80601f0160208091040260200160405190810160405280929190818152602001828054611442906120b7565b801561148f5780601f106114645761010080835404028352916020019161148f565b820191906000526020600020905b81548152906001019060200180831161147257829003601f168201915b505050505081526020016001820160009054906101000a900473ffffffffffffffffffffffffffffffffffffffff1673ffffffffffffffffffffffffffffffffffffffff1673ffffffffffffffffffffffffffffffffffffffff1681526020016002820180546114fe906120b7565b80601f016020809104026020016040519081016040528092919081815260200182805461152a906120b7565b80156115775780601f1061154c57610100808354040283529160200191611577565b820191906000526020600020905b81548152906001019060200180831161155a57829003601f168201915b505050505081526020016003820154815250509250505090565b82805461159d906120b7565b90600052602060002090601f0160209004810192826115bf5760008555611606565b82601f106115d857805160ff1916838001178555611606565b82800160010185558215611606579182015b828111156116055782518255916020019190600101906115ea565b5b5090506116139190611655565b5090565b604051806080016040528060608152602001600073ffffffffffffffffffffffffffffffffffffffff16815260200160608152602001600081525090565b5b8082111561166e576000816000905550600101611656565b5090565b6000604051905090565b600080fd5b600080fd5b600080fd5b600080fd5b6000601f19601f8301169050919050565b7f4e487b7100000000000000000000000000000000000000000000000000000000600052604160045260246000fd5b6116d982611690565b810181811067ffffffffffffffff821117156116f8576116f76116a1565b5b80604052505050565b600061170b611672565b905061171782826116d0565b919050565b600067ffffffffffffffff821115611737576117366116a1565b5b61174082611690565b9050602081019050919050565b82818337600083830152505050565b600061176f61176a8461171c565b611701565b90508281526020810184848401111561178b5761178a61168b565b5b61179684828561174d565b509392505050565b600082601f8301126117b3576117b2611686565b5b81356117c384826020860161175c565b91505092915050565b600073ffffffffffffffffffffffffffffffffffffffff82169050919050565b60006117f7826117cc565b9050919050565b611807816117ec565b811461181257600080fd5b50565b600081359050611824816117fe565b92915050565b6000806000606084860312156118435761184261167c565b5b600084013567ffffffffffffffff81111561186157611860611681565b5b61186d8682870161179e565b935050602084013567ffffffffffffffff81111561188e5761188d611681565b5b61189a8682870161179e565b92505060406118ab86828701611815565b9150509250925092565b60008115159050919050565b6118ca816118b5565b82525050565b60006020820190506118e560008301846118c1565b92915050565b600081519050919050565b600082825260208201905092915050565b6000819050602082019050919050565b611920816117ec565b82525050565b60006119328383611917565b60208301905092915050565b6000602082019050919050565b6000611956826118eb565b61196081856118f6565b935061196b83611907565b8060005b8381101561199c5781516119838882611926565b975061198e8361193e565b92505060018101905061196f565b5085935050505092915050565b600060208201905081810360008301526119c3818461194b565b905092915050565b6000819050919050565b6119de816119cb565b81146119e957600080fd5b50565b6000813590506119fb816119d5565b92915050565b600060208284031215611a1757611a1661167c565b5b6000611a25848285016119ec565b91505092915050565b611a37816117ec565b82525050565b6000602082019050611a526000830184611a2e565b92915050565b600081519050919050565b600082825260208201905092915050565b60005b83811015611a92578082015181840152602081019050611a77565b83811115611aa1576000848401525b50505050565b6000611ab282611a58565b611abc8185611a63565b9350611acc818560208601611a74565b611ad581611690565b840191505092915050565b611ae9816119cb565b82525050565b60006080830160008301518482036000860152611b0c8282611aa7565b9150506020830151611b216020860182611917565b5060408301518482036040860152611b398282611aa7565b9150506060830151611b4e6060860182611ae0565b508091505092915050565b60006020820190508181036000830152611b738184611aef565b905092915050565b600060208284031215611b9157611b9061167c565b5b6000611b9f84828501611815565b91505092915050565b6000819050919050565b611bbb81611ba8565b82525050565b6000604082019050611bd660008301856118c1565b611be36020830184611bb2565b9392505050565b600081519050919050565b600082825260208201905092915050565b6000819050602082019050919050565b60006080830160008301518482036000860152611c338282611aa7565b9150506020830151611c486020860182611917565b5060408301518482036040860152611c608282611aa7565b9150506060830151611c756060860182611ae0565b508091505092915050565b6000611c8c8383611c16565b905092915050565b6000602082019050919050565b6000611cac82611bea565b611cb68185611bf5565b935083602082028501611cc885611c06565b8060005b85811015611d045784840389528151611ce58582611c80565b9450611cf083611c94565b925060208a01995050600181019050611ccc565b50829750879550505050505092915050565b60006020820190508181036000830152611d308184611ca1565b905092915050565b600082825260208201905092915050565b7f53656e646572206973206e6f74206f776e657221000000000000000000000000600082015250565b6000611d7f601483611d38565b9150611d8a82611d49565b602082019050919050565b60006020820190508181036000830152611dae81611d72565b9050919050565b7f566f74696e672068617320656e64656421000000000000000000000000000000600082015250565b6000611deb601183611d38565b9150611df682611db5565b602082019050919050565b60006020820190508181036000830152611e1a81611dde565b9050919050565b7f4e487b7100000000000000000000000000000000000000000000000000000000600052603260045260246000fd5b7f43616e64696461746520776974682074686973206164647265737320616c726560008201527f6164792065786973747300000000000000000000000000000000000000000000602082015250565b6000611eac602a83611d38565b9150611eb782611e50565b604082019050919050565b60006020820190508181036000830152611edb81611e9f565b9050919050565b7f4e487b7100000000000000000000000000000000000000000000000000000000600052601160045260246000fd5b6000611f1c826119cb565b91507fffffffffffffffffffffffffffffffffffffffffffffffffffffffffffffffff821415611f4f57611f4e611ee2565b5b600182019050919050565b6000611f65826119cb565b9150611f70836119cb565b9250827fffffffffffffffffffffffffffffffffffffffffffffffffffffffffffffffff03821115611fa557611fa4611ee2565b5b828201905092915050565b7f596f75206861766520616c726561647920766f74656400000000000000000000600082015250565b6000611fe6601683611d38565b9150611ff182611fb0565b602082019050919050565b6000602082019050818103600083015261201581611fd9565b9050919050565b7f496e76616c69642063616e646964617465204944000000000000000000000000600082015250565b6000612052601483611d38565b915061205d8261201c565b602082019050919050565b6000602082019050818103600083015261208181612045565b9050919050565b7f4e487b7100000000000000000000000000000000000000000000000000000000600052602260045260246000fd5b600060028204905060018216806120cf57607f821691505b602082108114156120e3576120e2612088565b5b50919050565b7f4e6f2063616e6469646174657320726567697374657265640000000000000000600082015250565b600061211f601883611d38565b915061212a826120e9565b602082019050919050565b6000602082019050818103600083015261214e81612112565b905091905056fea26469706673582212202fcecaa9547cb15d9db7e85801a431138c8160eb2e5c31cfb7d0d835f5e466b164736f6c63430008080033a264697066735822122057dd6dc2c656468846df35ccc808177ce6219a35ae4126a279a2afeec223728664736f6c63430008080033",
  "linkReferences": {},
  "deployedLinkReferences": {}
}